:03000000020800F3
:0C080000787FE4F6D8FD758120020847DF
:10090700C100C102C104C101C183021A0000011361
:1009170000011200010D000115000416000000007F
:0709270002090000010C00B1
:1008D400E4F5B0D2B4D2B512096C1209AF3001FDFF
:1008E400C2B4C2B5851B12E51AF5138513C53000D1
:1008F400FDC2008512C53000FDC200D2B5D2B4C21B
:030904000180DA95
:10099F008FC53000FDC200E4F5C53000FDC2002256
:03004B0002095057
:10095000C0E0C0D075D000C007AFC4EF24807005E0
:0C09600085C508D200D007D0D0D0E0320E
:03000B0002088C5C
:10088C00C0E0C0D0C28C438CF4438A8ED201D28C8F
:10089C00300319C3E51B94FFE51A940F500A051B8E
:1008AC00E51B701F051A801BC2038017D3E51B9430
:1008BC0000E51A9400400AE51B151B7006151A80FA
:0808CC0002D203D0D0D0E032CB
:10096C00D2B443C32043C30143C31043C30853C38E
:0A097C00FB43B104D2AF43C3402295
:1009AF00438CF4438A8E438901D2AFD2A9D28C22D1
:10098600D3EF9400EE64809480400DE4FD0DBD0528
:08099600FCEF1F70EB1E80E86E
:01099E002236
:10092F00D3EF9400EE648094804015E4FCFD0DBD80
:10093F0000010CBC01F8BD7EF5EF1F70E31E80E0D7
:01094F002285
:10080C000208D4E493A3F8E493A34003F68001F226
:10081C0008DFF48029E493A3F85407240CC8C333ED
:10082C00C4540F4420C8834004F456800146F6DFBC
:10083C00E4800B0102040810204080900907E47E3C
:10084C00019360BCA3FF543F30E509541FFEE493B1
:10085C00A360010ECF54C025E060A840B8E493A378
:10086C00FAE493A3F8E493A3C8C582C8CAC583CAA3
:10087C00F0A3C8C582C8CAC583CADFE9DEE780BE5B
:01092E0000C8
:00000001FF
