:030000000208DA19
:0C08DA00787FE4F6D8FD75815D020921ED
:10096600C100C102C104C101C183025A0000025183
:100976000000013000012F00012700015500045638
:1009860000000000022200000229000001260001EA
:100996002400012800015400025C0002202031EFEF
:1009A600BEF18CF2FEF3CEF529F63FF750F7DFF7EE
:0F09B600DFF750F63FF529F3CEF2FEF18CEFBEDE
:1009C600E4F5B0D2B4D2B5120A7D120A463001FD62
:1009D600C2B4C2B5E5247006F551F5528006855AB3
:1009E60051855B5285522FE551F5308530C5300073
:1009F600FDC200852FC53000FDC200D2B5D2B4C2FB
:030A06000180CAA2
:03004B00020A2A7C
:100A2A00C0E0C0D075D000C007AFC4EF2480700505
:0C0A3A0085C521D200D007D0D0D0E0321A
:03000B00020800E8
:10080000C0E0C0D075D000C000C28C438CFE438ACB
:10081000DBD201D28CE5267025C3E52394FFE522C7
:100820006480948F5013055BE55B7002055A0523C5
:10083000E523702405220208D3752601801FE526D2
:10084000B40122C3E52394FFE5226480948F500A0B
:100850000523E523700205228079752602752200A2
:10086000752300806EE52664027068C3E52394FF5B
:10087000E5226480948F502AE52A64024529701885
:100880000523E52370020522E55B155B7002155A0E
:10089000752900752A00803B052AE52A703505294F
:1008A00080317526007522007523007431255DF8AE
:1008B000E6F528055DE55D7002055C2431F8E6F596
:1008C00054055DE55D7002055C6420455C7004F5CF
:0A08D0005CF55DD000D0D0D0E0321E
:03001B00020A6274
:100A6200C0E0C28E85288D85548BE52470057524DF
:0B0A7200018003752400D28ED0E0321A
:100A7D00D2B443C32043C30143C31043C30853C37C
:0A0A8D00FB43B104D2AF43C3402283
:100A4600438CFE438ADBE531428DE532428B438996
:0C0A560011D2AFD2A9D2ABD28CD28E222A
:100A9700D3EF9400EE64809480400DE4FD0DBD0516
:080AA700FCEF1F70EB1E80E85C
:010AAF002224
:100A0900D3EF9400EE648094804015E4FCFD0DBDA5
:100A190000010CBC01F8BD7EF5EF1F70E31E80E0FC
:010A290022AA
:1008E6000209C6E493A3F8E493A34003F68001F259
:1008F60008DFF48029E493A3F85407240CC8C33313
:10090600C4540F4420C8834004F456800146F6DFE1
:10091600E4800B0102040810204080900966E47E02
:10092600019360BCA3FF543F30E509541FFEE493D6
:10093600A360010ECF54C025E060A840B8E493A39D
:10094600FAE493A3F8E493A3C8C582C8CAC583CAC8
:10095600F0A3C8C582C8CAC583CADFE9DEE780BE80
:0109C5000031
:00000001FF
