:030000000208A350
:0C08A300787FE4F6D8FD7581390208EA80
:10097200C100C102C104C101C183023800000230BA
:100982000000012F00012E00012700013300043472
:1009920000000000022200000228000001260001DF
:0209A20024002F
:10092F00E4F5B0D2B4D2B51209FD120A173001FDA9
:10093F00C2B4C2B5E5247006F530F53180068538AE
:10094F003085393185312EE530F52F852FC53000B3
:10095F00FDC200852EC53000FDC200D2B5D2B4C293
:03096F000180CA3A
:03004B000209C6E1
:1009C600C0E0C0D075D000C007AFC4EF248070056A
:0C09D60085C521D200D007D0D0D0E0327F
:03000B00020800E8
:10080000C0E0C0D0C28C438CFE438ADBD201D28CC4
:10081000E5267024C3E52394FFE5226480948F507D
:10082000120539E539700205380523E523706F0597
:1008300022806B7526018060E526B4011CC3E52388
:1008400094FFE5226480948F500A0523E52370020B
:100850000522804A752602803FE526B40240C3E5A2
:100860002394FFE5226480948F502AE52964024591
:100870002870180523E52370020522E53915397023
:1008800002153875280075290080130529E529709F
:100890000D05288009752600752200752300D0D02B
:0308A000D0E03273
:03001B000209E2F5
:1009E200C0E0C28E438DDF438B73E524700575240E
:0B09F200018003752400D28ED0E0329B
:1009FD00D2B443C32043C30143C31043C30853C3FD
:0A0A0D00FB43B104D2AF43C3402203
:100A1700438CFE438ADB438DDF438B73438911D2BB
:0A0A2700AFD2A9D2ABD28CD28E223E
:100A3100D3EF9400EE64809480400DE4FD0DBD057C
:080A4100FCEF1F70EB1E80E8C2
:010A4900228A
:1009A500D3EF9400EE648094804015E4FCFD0DBD0A
:1009B50000010CBC01F8BD7EF5EF1F70E31E80E061
:0109C500220F
:1008AF0002092FE493A3F8E493A34003F68001F227
:1008BF0008DFF48029E493A3F85407240CC8C3334A
:1008CF00C4540F4420C8834004F456800146F6DF19
:1008DF00E4800B0102040810204080900972E47E2E
:1008EF00019360BCA3FF543F30E509541FFEE4930E
:1008FF00A360010ECF54C025E060A840B8E493A3D5
:10090F00FAE493A3F8E493A3C8C582C8CAC583CAFF
:10091F00F0A3C8C582C8CAC583CADFE9DEE780BEB7
:0109A4000052
:00000001FF
